:020000040800F2
:100000000008002089010008A31B000889190008C6
:10001000A11B0008BF030008A91F00080000000082
:10002000000000000000000000000000A71B000806
:10003000C103000800000000A51B0008A91B000860
:10004000A3010008A3010008A3010008A301000800
:10005000A3010008A3010008A3010008A3010008F0
:10006000A3010008A3010008A3010008A3010008E0
:10007000A3010008A3010008A3010008A3010008D0
:10008000A3010008A3010008A3010008A3010008C0
:10009000A3010008A3010008A3010008C30300088E
:1000A000A3010008251C0008A3010008A301000803
:1000B000311C0008A3010008A3010008A3010008E7
:1000C000A3010008A3010008A3010008A301000880
:1000D000A3010008A30100089D1F0008A301000858
:1000E000A3010008A3010008A301000800F002F822
:1000F00000F03AF80AA090E8000C82448344AAF188
:100100000107DA4501D100F02FF8AFF2090EBAE885
:100110000F0013F0010F18BFFB1A43F0010318473B
:10012000A81F0000C81F0000103A24BF78C878C17B
:10013000FAD8520724BF30C830C144BF04680C60ED
:10014000704700000023002400250026103A28BF35
:1001500078C1FBD8520728BF30C148BF0B60704739
:100160001FB51FBD10B510BD00F0C3F81146FFF755
:10017000F7FF01F02BFF00F0E1F803B4FFF7F2FF07
:1001800003BC00F0E9F8000009488047094800472F
:10019000FEE7FEE7FEE7FEE7FEE7FEE7FEE7FEE737
:1001A000FEE7FEE704480549054A064B7047000094
:1001B000211C0008ED0000080002002000080020BB
:1001C000000400200004002010B5431C02E010F8D9
:1001D000011B71B18107FAD14FF0013202C88C1AAC
:1001E0008C4314EAC211F9D0C01A0A0603D0C01E0B
:1001F00010BDC01A10BD0A0401D0801E10BD090236
:10020000FCD0401E10BD421E12F8013F002BFBD156
:1002100011F8013B002B02F8013BF9D170474FF078
:10022000000200B5134694469646203922BFA0E846
:100230000C50A0E80C50B1F12001BFF4F7AF090752
:1002400028BFA0E80C5048BF0CC05DF804EB890043
:1002500028BF40F8042B08BF704748BF20F8022B86
:1002600011F0804F18BF00F8012B70474FF0013C90
:1002700050F8042B51F8043B9A4221D1A2EB0C0315
:10028000934313EACC1317D150F8042B51F8043BD5
:100290009A4215D1A2EB0C03934313EACC130BD172
:1002A00050F8042B51F8043B9A4209D1A2EB0C03FD
:1002B000934313EACC13DBD04FF00000704700BF2C
:1002C000D01A01BAB1FA81F101F0180122FA01F055
:1002D000CB40C1F12001DBB2C0B2C01A2CFA01F34D
:1002E000D11A914311EAC311E6D1704770477047A4
:1002F0007047754600F02CF8AE4605006946534637
:1003000020F00700854618B020B5FFF74BFFBDE889
:1003100020404FF000064FF000074FF000084FF06C
:10032000000B21F00701AC46ACE8C009ACE8C009FD
:10033000ACE8C009ACE8C0098D46704710B504466A
:10034000AFF300802046BDE81040FFF716BF000065
:1003500000487047A001002001491820ABBEFEE70D
:10036000260002007047000070B5044600688168EE
:10037000C943C90717D1816821F00101816000F0EC
:10038000DBFA05460AE000BF00F0D6FA401B02285F
:1003900004D920688068C043C00706D02068806800
:1003A000C043C007F0D0002070BDA06A40F010002C
:1003B000A062E06A40F00100E062012070BDFEE74B
:1003C0007047802000F0B6B9F8B50024009490F88A
:1003D00024202546012A12D0012280F824204A68D0
:1003E0001F23072A0DD20668776B521E02EB82028A
:1003F00093409F430B6893401F43776319E00220AB
:10040000F8BD06680D2A0AD2376BD21F02EB8202B2
:1004100093409F430B6893401F43376309E0F76A9B
:100420000D3A02EB820293409F430B6893401F43B7
:10043000F7620A68072306680A2A0AD3F7680A3AA5
:1004400002EB420293409F438B6893401F43F76047
:1004500008E0376902EB420293409F438B68934068
:100460001F4337610A68102A01D0112A20D1124B8C
:1004700002689A4217D193681B0219D4936843F417
:10048000000393600968102912D10C490C4A0968CD
:10049000B1FBF2F101EB8101490000E0491E00913E
:1004A0000029FBD104E0816A41F02001816201242E
:1004B00080F824502046F8BD002401403000002080
:1004C00040420F002DE9F0414FF0000704003D4687
:1004D0007ED0A06A002628B9E66284F8246020460F
:1004E00000F07EF82046FFF73FFFA16AC90600D45E
:1004F00020B1A06A40F01000A06269E0A16A21F476
:10050000885141F00201A1626268E169237B0A43DC
:1005100047EA43010A43A1684FF48077B94209D002
:10052000012907D05FF0000194F814C0BCF1010F5D
:1005300002D00AE03946F7E7F3B1A36A43F020039B
:10054000A362E36A43F00103E3622368D3F804C0C3
:100550002CF4694C4CEA010CC3F804C021688B6888
:10056000DFF870C003EA0C0313438B60A168B94243
:100570000BD0012909D00CE0DFF85CC0A3690CEBBB
:1005800043330B4343F40061DFE7218A0D05A5F5F2
:1005900080152168CB6A23F470032B43CB6221685A
:1005A00089680E4B1940914208D1E662A16A21F098
:1005B000020141F00101A162BDE8F081A06A20F0D2
:1005C000020040F01000A062E06A40F00100E0622A
:1005D0000120F1E7FDF7E1FF00E0FFFFFE0E1FFF46
:1005E00000B585B00021009101910291039100684E
:1005F0000E49884218D10E48816941F40071816129
:10060000816901F400710491816941F00401816103
:100610008069694600F004000490022000900320E5
:100620000190044800F092F805B000BD002401409C
:10063000001002400008014010B590F8211000227F
:10064000022905D00421816380F82020012010BDFB
:1006500001680B6823F00E030B6001680B6823F040
:1006600001030B6090F84030C46B012101FA03F3E1
:10067000636080F8211080F82020104610BD000033
:1006800010B590F821100024022903D004218163C1
:1006900001243DE001680A6822F00E020A60016848
:1006A0000A6822F001020A601A4A0168914201D1E7
:1006B000012121E0174A1432914201D110211BE09F
:1006C000144A2832914201D1891515E0114A3C3271
:1006D000914201D189140FE00E4A5032914202D169
:1006E0004FF4803108E00B4A6432914202D14FF45A
:1006F000801101E04FF08071064A083A51600121F3
:1007000080F82110002180F82010416B01B188474A
:10071000204610BD08000240802805D10A231F2270
:100720000249034801F0E2B87047000002000020CF
:1007300058010020044910B50A68024202D008603E
:10074000FFF7EAFF10BD0000140401402DE9F84F47
:10075000DFF8B8910024A9F1040B23460F2709F113
:10076000040AABF1040EC9E00125A5402A40AA42C3
:100770007DD1674ED1F804C0ACEB0608B44532D049
:1007800014DCBCF1030F3AD009DCBCF1000F2AD015
:10079000BCF1010F1CD0BCF1020F31D11DE0BCF146
:1007A000110F17D0BCF1120F2AD119E0B8F5881F2C
:1007B00019D006DCB8F5803F15D0B8F5801F1FD1E1
:1007C00011E0B8F5001F0ED0B8F5041F18D10AE0EB
:1007D000CB6815E0CB681B1D12E0CB6808330FE037
:1007E000CB680C330CE08B682BB1012B4FF0080366
:1007F00003D0456104E0042302E0056100E000232A
:10080000FF2A01D8064601E000F104064FEA8405FC
:1008100001D9A5F12005D6F8008007FA05FC28EAE1
:100820000C0803FA05F548EA0508C6F800804D688B
:10083000ED0062D5374DAE6946F00106AE61AD6997
:1008400024F0030605F001050095334D06EB050C79
:10085000DCF80850A607360F07FA06F825EA08055F
:10086000DFF8B880404503D14FF0000817E044E0BE
:10087000DFF8AC80404502D14FF001080FE0DFF80F
:10088000A480404502D14FF0020808E0DFF89880CC
:10089000404502D14FF0030801E04FF0040808FA88
:1008A00006F848EA0508CCF808804D68D9F80060D9
:1008B000ED024D4601D5164300E096432E604D688B
:1008C000DAF80060AD02554601D5164300E09643C4
:1008D0002E604D68DBF80060AD035D4601D5164320
:1008E00000E096432E604D68DEF80060ED0375462B
:1008F00001D5164300E096432E60641C0D682A461D
:10090000E5407FF431AFBDE8F88F000008040140F6
:1009100000001110001002400000014000080140DA
:10092000000C014000100140001401400AB10161B7
:1009300070470904FBE70000014880687047000029
:1009400024000020024881680278114481607047C9
:1009500024000020074810B5016841F01001016033
:10096000032000F075F80F2000F006F800F024F8DE
:10097000002010BD0020024070B50D4D04464FF41C
:100980007A712878B1FBF0F00A490968B1FBF0F000
:1009900000F052FB48B9102C07D200222146501E0D
:1009A00000F036F800206C6070BD012070BD0000C2
:1009B00024000020300000200C4808B5816941F077
:1009C00001018161816901F001010091C16941F07A
:1009D0008051C161C06900F08050009004484168B6
:1009E00021F0E06141F00071416008BD001002405B
:1009F00000000140002809DB00F01F0201219140A6
:100A00004009800000F1E020C0F8001170470000AC
:100A1000F0B40E4B1B680C46C3F30223C3F1070569
:100A2000042D00D90425191D072901D2002300E057
:100A3000DB1E012606FA05F1491E214099409E4021
:100A4000761E16403143F0BC01F0AFBA0CED00E069
:100A5000064900F0070208684FF6FF03184040EA15
:100A60000220034A10430860704700000CED00E0CC
:100A70000000FA052DE9F84305460078354CC0071B
:100A800054D0E0690026C00008D4E06940F08050EE
:100A9000E061E069012600F0805000902E48016876
:100AA000C90512D40168804641F480710160FFF7E6
:100AB00043FF074605E000BFFFF73EFFC01B642869
:100AC00023D8D8F80000C005F6D5206A10F440708D
:100AD00021D0A98801F4407181421CD0206A1F49AD
:100AE000012220F440700A6000220A602062C007E0
:100AF00011D0FFF721FF074641F2883808E000BF18
:100B0000FFF71AFFC11B414502D90320BDE8F88356
:100B1000206A8007F4D5206A696820F44070084391
:100B200020621EB1E06920F08050E06128788007E3
:100B300005D56068A96820F44040084360602878C3
:100B4000C00605D56068E96820F48000084360604D
:100B50000020DBE7001002400070004040044242E9
:100B60002DE9F0470F46050061D0434E306800F094
:100B70000700B84209D2306820F0070038433060DF
:100B8000306800F00700B84251D128683B4C81071B
:100B900012D5400703D5606840F4E06060602878B3
:100BA000000703D5606840F4605060606068A96821
:100BB00020F0F000084360602878C00728D06868FB
:100BC000012810D02168022810D0890700292EDAC8
:100BD000616821F0030101436160FFF7ADFE8046CB
:100BE00041F288390DE021688903EFE78901EDE7DB
:100BF000FFF7A2FEA0EB0801494502D90320BDE89A
:100C0000F0876068696800F00C00B0EB810FEFD1ED
:100C1000306800F00700B8420BD9306820F00700B8
:100C200038433060306800F00700B84201D001203E
:100C3000E5E72878400705D56068E96820F4E060BA
:100C4000084360602878000706D56068296920F4A9
:100C5000605040EAC100606000F038F86168084AFE
:100C6000C1F30311515CC84006490860064800689A
:100C7000FFF782FE0020C2E7002002400010024081
:100C8000AE2000083000002028000020044805495C
:100C900000684968044AC1F30221515CC8407047AA
:100CA0003000002000100240BE2000080448054922
:100CB00000684968044AC1F3C221515CC8407047CA
:100CC0003000002000100240BE2000080E4A51688B
:100CD0000E4801F00C03042B11D0082B0FD10C4847
:100CE000C1F38343C903C05C0AD55168084AC1F304
:100CF0004041921E515C054A5043B0FBF1F07047F1
:100D000004494843704700000010024000127A0076
:100D10009E20000800093D002DE9F84F040070D026
:100D20002078C04DC00749D06868C0F38100012811
:100D300007D06868C0F38100022809D16868C00341
:100D400006D52868800339D560680028E7D035E0EB
:100D50006068B0F5803F0BD010B1B0F5A02F11D076
:100D6000286820F480302860286820F4802002E081
:100D7000286840F480302860606890B1FFF7DCFD9F
:100D800006460AE0286840F480202860F0E700BFAB
:100D9000FFF7D2FD801B642873D828688003F7D53D
:100DA0000CE0FFF7C9FD064605E000BFFFF7C4FDF4
:100DB000801B6428F0D828688003F7D420789A4EE6
:100DC00080074FF001094FF0000839D5686810F02E
:100DD0000C0F07D06868C0F38100022809D1686849
:100DE000C00306D42868800714D52069012808D1DB
:100DF00010E02069B0B1C6F80090FFF79DFD0746EE
:100E000005E00AE1FFF798FDC01B0228C4D8286856
:100E10008007F7D52868616920F0F80040EAC10032
:100E200028600DE0C6F80080FFF786FD074604E065
:100E3000FFF782FDC01B022823D828688007F7D45B
:100E4000207800072CD57948A169D9B1C0F8009065
:100E5000FFF772FD074604E0FFF76EFDC01B022896
:100E60000FD8686A8007F7D571484FF4FA510068C7
:100E7000B0FBF1F0009000BF0098411E0091FAD243
:100E80000EE080E0C0F80080FFF756FD074604E062
:100E9000FFF752FDC01B022875D8686A8007F7D497
:100EA0002078400760D5E8690027C00008D4E869C9
:100EB00040F08050E861E869012700F08050009020
:100EC0005C480168C90513D40168834641F4807108
:100ED0000160FFF731FD824606E000BFFFF72CFD01
:100EE000A0EB0A0064284ED8DBF80000C005F5D559
:100EF000E06801280AD008B1052813D0286A20F03C
:100F000001002862286A20F0040002E0286A40F00C
:100F100001002862E06841F2883B98B1FFF70CFDC0
:100F200082460BE0286A40F004002862EEE700BF2A
:100F3000FFF702FDA0EB0A0159455AD8286A80073D
:100F4000F6D50CE0FFF7F8FC824605E0FFF7F4FC6D
:100F5000A0EB0A0159454CD8286A8007F6D41FB186
:100F6000E86920F08050E861E06988B36968C1F3FE
:100F70008101022944D00228C6F8608004D0FFF71E
:100F8000DBFC044638E034E0FFF7D6FC074604E01B
:100F9000FFF7D2FCC01B02282BD828688001F7D4A9
:100FA000206AB0F5803F05D16868A16820F4003060
:100FB00008436860D4E908010843696821F47411A2
:100FC00008436860C6F86090FFF7B6FC044606E088
:100FD00025E000BFFFF7B0FC001B022809D82868F5
:100FE0008001F7D51BE000BFFFF7A6FC001B02281D
:100FF00002D90320BDE8F88F28688001F4D40EE000
:101000000128F7D06868226A00F48031914204D147
:10101000616A00F47010884201D00120EAE70020E4
:10102000E8E7000000100240000042428004424213
:10103000300000200070004010B5401EB0F1807FED
:1010400001D3012010BD4FF0E02460610F21601733
:1010500000F0ABFF0020A06107202061002010BD40
:101060007047704770B590F83C20012A26D00124C3
:1010700080F83C40022280F83D2003685A689D6851
:1010800022F070060A6832435A600D4B02689A4299
:1010900008D0B2F1804F05D00A4B9A4202D00A4BD9
:1010A0009A4204D1496825F080031943916080F881
:1010B0003D40002180F83C10084670BD022070BD04
:1010C000002C0140000400400008004010B504005E
:1010D00003D094F83D0010B107E0012010BD0020BE
:1010E00084F83C00204600F01FF8022084F83D0000
:1010F000211D206800F0A2FD012084F8460084F83C
:101100003E0084F83F0084F8400084F8410084F8F1
:10111000420084F8430084F8440084F8450084F8D1
:101120003D00002010BD000008B5154A01681548B3
:1011300091420ED1816941F4006181618069002290
:1011400000F40060009001211920FFF761FC1920D4
:1011500010E0B1F1804F11D1C16941F00101C161CD
:10116000C069002200F00100009011461C20FFF72A
:101170004FFC1C20BDE80840FFF73CBC08BD000048
:10118000002C01400010024090F83D10012901D0D0
:1011900001207047022180F83D100168CA6842F0C2
:1011A0000102CA6000680B49884208D0B0F1804F44
:1011B00005D00949884202D00849884204D1816893
:1011C00001F00701062903D0016841F00101016027
:1011D00000207047002C014000040040000800403F
:1011E00070B5044690F83C000025012817D0012670
:1011F00084F83C60022084F83D002068826822F078
:10120000770222F47F4282600868502838D00DDCD3
:1012100020284FD005DC90B3102811D14AE00220DD
:1012200070BD302846D040280AD13BE060282FD03E
:1012300070280DD0B0F5805F03D0B0F5005F12D0FC
:10124000012584F83D60002084F83C00284670BDEC
:10125000CB68D1E90121206800F026FD2068816873
:1012600041F0770109E0CB68D1E90121206800F065
:101270001BFD2068816841F480418160E1E719E04D
:10128000CA684968206800F021FD5021206806E006
:10129000CA684968206800F02AFD6021206800F0D3
:1012A0000DFDCEE7CA684968206800F00FFD4021B7
:1012B0002068F4E7226801461046F0E7704770B5F1
:1012C0000446006801694FF00005C943890715D439
:1012D000C168C943890711D4E91E01610120207743
:1012E000206880698007204602D0FFF7E7FF04E00E
:1012F00000F098F8204600F096F8257720680169FC
:10130000C943490717D4C168C943490713D46FF0CB
:1013100004010161022020772068806910F4407F79
:10132000204602D0FFF7CAFF04E000F07BF8204619
:1013300000F079F8257720680169C943090716D4B8
:10134000C168C943090712D46FF008010161042084
:1013500020772068C0698007204602D0FFF7AEFFE3
:1013600004E000F05FF8204600F05DF82577206883
:101370000169C943C90617D4C168C943C90613D452
:101380006FF010010161082020772068C06910F417
:10139000407F204602D0FFF791FF04E000F042F8C2
:1013A000204600F040F8257720680169C943C90745
:1013B00008D1C168C943C90704D1891E016120460B
:1013C00000F032F820680169C943090609D4C168F0
:1013D000C943090605D46FF0800101612046FFF77B
:1013E0003FFE20680169C943490609D4C168C94361
:1013F000490605D46FF040010161204600F015F860
:1014000020680169C94389060BD4C168C9438906AC
:1014100007D46FF0200101612046BDE87040FFF75E
:1014200020BE70BD70477047704770477047704767
:10143000F8B5016804460868CA684B6910F00F0FD8
:101440004FF0000559D003F0010602F490773743BE
:1014500065D0C10705D0D10503D5616C41F001010C
:101460006164410705D5D90703D0616C41F00201E1
:101470006164810705D5D90703D0616C41F004018F
:101480006164010707D502F02001314303D0616C8C
:1014900041F008016164616C00293AD0800604D5EE
:1014A000900602D5204600F063FC20684069616C1C
:1014B000C0F38010090700D460B3204600F031FC6F
:1014C00020684069400621D52068143050E8001F8C
:1014D00021F0400140E80012002AF5D1E06BA8B1EC
:1014E0006D494163E06BFFF7CBF8002811D0E06B4A
:1014F000416B01B0BDE8F040084783060FD5930665
:101500000DD52046BDE8F84000F032BC2046FFF77C
:101510008EFFF8BD2046FFF78AFF6564F8BD266B95
:101520002023012E7CD1C6067AD5D60678D5086848
:101530004868009048694FF00206400640D5E16BCC
:10154000086840680004000CE8D0A28D8242E5D90A
:10155000E085886920282DD020680C3050E8001FD5
:1015600021F4807140E80012002AF5D1206814307F
:1015700050E8001F21F0010140E80012002AF5D1D7
:101580002068143050E8001F21F0400140E80012AC
:10159000002AF5D184F84230256320680C3050E8E9
:1015A000001F21F0100140E80012002AF5D1E06B85
:1015B000FFF742F86663A08DE18D401A81B22AE000
:1015C000A08DE18D401A81B2E08D0028A6D00029BF
:1015D000A4D022680C3252E8000F20F4907042E848
:1015E0000007002FF5D12068143050E8002F22F0BA
:1015F000010240E80027002FF5D184F8423025632E
:1016000020680C3050E8002F22F0100240E8002340
:10161000002BF5D166632046FFF708FFF8BDFFE712
:1016200005062BD5150629D594F841002128F5D1BA
:10163000A068B0F5805F01D12069B0B1206A411C7B
:101640002162216800784860E08C401E0004000C94
:10165000E084E3D12068C16821F08001C160206886
:10166000C16841F04001C160D8E7206A0088C0F33A
:1016700008004860206A801C2062E5E74006CDD55E
:101680005006CBD5CA68204622F04002CA6084F8D2
:10169000413000F078F9C1E7131D000870B504006F
:1016A00004D094F84100002510B106E0012070BD7F
:1016B00084F84050204600F023F8242084F84100AC
:1016C0002068C16821F40051C160204600F0B2FBDF
:1016D0002068016921F4904101612068416921F08D
:1016E0002A0141612068C16841F40051C16065640C
:1016F000202084F8410084F842006563002070BD1A
:1017000030B585B0002400940194029403940068DD
:10171000184988422BD11848C16941F40031C16190
:10172000C16901F400310491816941F004018161D2
:101730008069124D00F00400049004200090022003
:1017400001900320039069462846FEF7FFFF08201A
:10175000CDE90004694628460294FEF7F7FF00220F
:1017600001212620FFF754F92620FFF743F905B0A1
:1017700030BD00000044004000100240000801405D
:1017800090F84230202B01D00220704721B11AB1CD
:101790000023036300F0AABB012070472DE9F05F2E
:1017A0003E49884278D13E4CA1F5927600252078BA
:1017B000315C0D290DD0401CC0B22070642800D3CC
:1017C000257020783118BDE8F05F01223348FFF71B
:1017D000D7BF35540120607032A13448FEF746FD72
:1017E000334FDFF8D0804FF4805A4FF4006B00285D
:1017F0003ED031A12D48FEF739FD002838D030A168
:101800002A48FEF733FD002832D02FA12748FEF7E3
:101810002DFD68B32EA12548FEF728FD78B12EA135
:101820002248FEF723FD50B12EA12048FEF71EFDF1
:1018300028B11CA11D48FEF719FD0028C0D10122C6
:101840002021B9463846FFF771F801225146474634
:101850004046FFF76BF8012259463846FFF766F815
:101860005FF001024FF480714846FFF75FF8A7E789
:1018700000222021B9463846FFF758F80022514689
:1018800047464046FFF752F8002259463846FFF7D0
:101890004DF80022E6E7FFE7BDE8F09F5801002081
:1018A000000000204C45444F4E0000003400002052
:1018B000000C0140000801400A4C45444F4E000016
:1018C0000A4C45444F4E0A004C45444F4E0A000016
:1018D0000A4C45444F4646000A4C45444F46460A8A
:1018E000000000004C45444F46460A002DE9F843ED
:1018F000044690F841001F4616460D46202802D0A7
:101900000220BDE8F8837DB176B10020606421201B
:1019100084F84100FFF710F8A6848046E684A068AA
:10192000B0F5805F02D003E00120EAE7206910B142
:101930002E4600250EE000260CE08021204600F017
:10194000F0FAA0B9AEB116F8010B21684860E08C3E
:10195000401EE084E08C43464FF0000200970028D0
:10196000EBD14FF04001204600F0DBFA30B103200C
:10197000C7E735F8020BC0F30800E6E7202084F83B
:1019800041000020BDE77047FEE700003EB500249F
:1019900010480094019402940D498460016004731E
:1019A0000475012505614FF460214460C161FEF7B3
:1019B00089FD08B172B6FEE70095CDE9015469468C
:1019C0000448FEF701FD002801D072B6FEE73EBDD7
:1019D00000240140980000202DE9F04385B0002448
:1019E00036480094019402940394816941F02001E7
:1019F0008161816901F020010491816941F0040154
:101A00008161816901F004010491816941F008015B
:101A100081618069DFF8A89000F0080041F6310587
:101A20000490002229464846FEF780FFDFF89480A4
:101A300040F22337002239464046FEF777FF0095F3
:101A4000022601250396CDE9015469464846FEF772
:101A50007DFE4FF4A0708DE8310069464846FEF7E0
:101A600075FE802000901848CDE90104694648467B
:101A7000FEF76CFE00970396CDE901546946404697
:101A8000FEF764FE6802CDE9000603200390694674
:101A90004846FEF75BFEA802CDE9000469464846C9
:101AA0000294FEF753FE002202211720FEF7B0FF3A
:101AB0001720FEF79FFF05B0BDE8F083001002403D
:101AC00000080140000C01400000211010B586B054
:101AD0000024184800940194029403940494144937
:101AE000059401604FF4FA51C0E9011440F2E73166
:101AF000C0E9031444618461FFF7E8FA08B172B6E3
:101B0000FEE74FF48050009069460A48FFF768FBF3
:101B100008B172B6FEE7049404A906480594FFF7DD
:101B2000A1FA002801D072B6FEE706B010BD000091
:101B3000002C0140C800002010B586B000241748D2
:101B4000009401940294039404944FF0804105940E
:101B500001604FF4FA51C0E9011442F21071C0E97A
:101B600003148461FFF7B2FA08B172B6FEE74FF4CE
:101B70008050009069460948FFF732FB08B172B601
:101B8000FEE7049404A905480594FFF76BFA0028C2
:101B900001D072B6FEE706B010BD000010010020B3
:101BA000FEE7FEE770477047FEF7CCBE30B593B056
:101BB00028216846FEF733FB14210AA8FEF72FFB05
:101BC000002401200F940225049000951020059018
:101BD000109411941294CDE9075468460994FFF7C4
:101BE0009BF808B172B6FEE70F20CDE90A054FF465
:101BF0008060CDE90C4000210AA80E94FEF7B0FFEA
:101C000008B172B6FEE74FF4004011900F950FA88F
:101C1000FEF730FF002801D072B6FEE713B030BDEA
:101C2000704700000148FFF74ABB0000C8000020D1
:101C30000148FFF744BB000010010020F0B5026826
:101C4000164B174C174D4FF08047984205D0B842BD
:101C500003D0A04201D0A84203D122F070064A6806
:101C60003243984205D0B84203D0A04201D0A842E6
:101C700003D122F44074CA6822434C6922F08002E6
:101C8000224302608A68C2620A688262984201D175
:101C90000969016301214161F0BD0000002C014090
:101CA000000400400008004010B5846842EA0322A6
:101CB00024F47F440A432243826010BD826822F0EC
:101CC00070020A4342F007018160704710B5036A51
:101CD000046A24F001040462846924F0F00444EAF4
:101CE000021423F00A020A438461026210BD10B597
:101CF000036A046A24F010040462846923F0A003D8
:101D000024F4704444EA023243EA01118261016220
:101D100010BD10B5406A0021C185C184FFF787FB63
:101D200010BD01680C3151E8002F22F4907241E897
:101D30000023002BF5D10168143151E8002F22F067
:101D4000010241E80023002BF5D1016B012909D1E3
:101D500001680C3151E8002F22F0100241E8002305
:101D6000002BF5D1202180F842100021016370473B
:101D700008B590F84210222901D0022008BD8268DF
:101D80004FF480539A4201D1016921B1816A9A428C
:101D90001BD04AB10AE00268816A5268C2F30802A5
:101DA0000A80816A891C08E0026972B1026852687F
:101DB00002F07F020A70816A491C8162C18D491E4E
:101DC0000904090CC18503D01BE002685268F1E7E1
:101DD0000168CA6822F02002CA600168CA6822F459
:101DE0008072CA6001684A6922F001024A612021BA
:101DF00080F8421000214163026B012A03D0FFF7F3
:101E0000CDFC002008BD016301680C3151E8002FB2
:101E100022F0100241E80023002BF5D101680A6886
:101E2000D20602D50A6849680091818DFFF7FEFA53
:101E3000E7E7000070B5044600680169E26821F434
:101E40004051114301612169A06808436169084359
:101E50002168CA6841F20C639A430243CA60206851
:101E60004169A26921F44071114341611E49206812
:101E7000884202D1FEF71AFF01E0FEF707FF00EBF0
:101E8000C00101EB0012606864218000B2FBF0F336
:101E9000B3FBF1F36FF018067343B2FBF0F5B2FB3E
:101EA000F0F605EB8305322303EB0515B5FBF1F5E1
:101EB000B6FBF1F605F0F00505EB0615B2FBF0F602
:101EC000B2FBF0F0B0FBF1F06FF01802504306EBFC
:101ED000800003EB0010B0FBF1F0216800F00F0070
:101EE0002844886070BD000000380140816282850E
:101EF000C28500214164222180F84210016921B18C
:101F00000168CA6842F48072CA6001684A6942F096
:101F100001024A610068C16841F02001C1600020EF
:101F200070472DE9F041984617460E460446069D37
:101F300027E0681C25D02DB1FEF7FEFCA0EB0800C1
:101F4000A8421ED920680C3050E8001F21F4D0713F
:101F500040E80012002AF5D12068143050E8001F34
:101F600021F0010140E80012002AF5D1202084F878
:101F7000410084F84200002084F840000320BDE8BE
:101F8000F0812068006836EA000004D00020B842E2
:101F9000CFD00020F3E70120F9E700000148FFF768
:101FA00047BA000058010020FEE70907090E002883
:101FB00004DB00F1E02080F80014704700F00F000F
:101FC00000F1E02080F8141D70470000FEF7C2FC0D
:101FD000FFF7ECFDFFF700FDFFF7D8FCFFF776FDFC
:101FE000FFF7AAFD27482649002401604FF4E1319C
:101FF000C0E901140C21C460C0E904418461C461DA
:10200000FFF74CFB08B172B6FEE71E489038FFF7A9
:10201000BBF81E4D1C480122297801441948FFF7DE
:10202000AFFB1B4E012210213046FEF77FFC194FFB
:10203000012220213846FEF779FC012211033046A7
:10204000FEF774FC0122D1023046FEF76FFC01223C
:1020500011023846FEF76AFC4FF47A766878002859
:10206000FCD00DA10848FEF7CEF80748FEF7ACF803
:1020700082B2334604490348FFF738FC6C70EDE741
:1020800000440040580100203400002000000020DF
:1020900000080140000C01400A0000000102020398
:1020A0000405060708090A0B0C0D0E0F101000009E
:1020B00000000000000001020304060708090000F8
:1020C0000000010203040000E820000800000020D6
:1020D00034000000280100081C2100083400002002
:1020E000CC07000044010008000048656C6C6F20BC
:1020F00066726F6D2043686572727920456C656306
:1021000074726F6E6963730A0000000001000000C2
:0C21100010000000000000000024F4009B
:04000005080000ED02
:00000001FF
