:020000040800F2
:1000000060090020B9010008C73700086135000801
:10001000C5370008991C00086D3C0008000000006E
:10002000000000000000000000000000413800084F
:10003000211E000800000000C93700086F380008C2
:10004000D3010008D3010008D3010008D301000840
:10005000D3010008D3010008D3010008D301000830
:10006000D3010008D3010008D3010008D301000820
:10007000D3010008D3010008D3010008D301000810
:10008000D3010008D3010008D3010008D301000800
:10009000D3010008D3010008D3010008231E000883
:1000A000D3010008E9380008D3010008D301000893
:1000B000F5380008D3010008D3010008D301000877
:1000C000D3010008D3010008D3010008D3010008C0
:1000D000D3010008D3010008613C0008D3010008E7
:1000E000D3010008D3010008D301000800F002F892
:1000F00000F052F80AA090E8000C82448344AAF170
:100100000107DA4501D100F047F8AFF2090EBAE86D
:100110000F0013F0010F18BFFB1A43F0010318473B
:100120004C3F00006C3F0000103A24BF78C878C1F3
:10013000FAD8520724BF30C830C144BF04680C60ED
:10014000704700000023002400250026103A28BF35
:1001500078C1FBD8520728BF30C148BF0B60704739
:10016000662903F01287642900F05280002070474E
:100170001FB59DE8030000F02FFF00F007FC04000E
:100180000020002103F060FEE06000F017FD1FBDBD
:1001900010B500F07CFD10BD00F0E4FD1146FFF746
:1001A000E7FF03F0B1FD00F0E9FE03B4FFF7F0FF55
:1001B00003BC01F0A3F80000094880470948004744
:1001C000FEE7FEE7FEE7FEE7FEE7FEE7FEE7FEE707
:1001D000FEE7FEE704480549054A064B7047000064
:1001E000E7380008ED0000086003002060090020E7
:1001F00060050020600500200FB4044910B503AA73
:10020000029800F0B1FB10BC5DF814FB580200200E
:100210002DE9F0410646002410687529314616A5DF
:1002200010D0AFF30080002802DA404213A507E0A7
:1002300031688A0701D512A502E0490704D511A546
:10024000012401E0AFF3008000210A2206F1240717
:1002500009E0B0FBF2FCB0FBF2F302FB1C00303013
:1002600078541846491C0028F3D123462A463046C4
:10027000BDE8F04100F00FB9000000002D000000C3
:100280002B000000200000002DE9F05F89460446A5
:100290004FF0000ADFF824B1FB44C0F820A020464C
:1002A000E168884700287DD0252806D0D4E90121BF
:1002B0009047206A401C2062F1E700255F462046F7
:1002C000E16888472028064607DB312E05D2B81999
:1002D00010F8200C08B10543F1E7A80701D525F077
:1002E0000405C4F81CA00027C4F818A02A2E09D0C1
:1002F000304603F0E0FC38B304EB8708303EC8F822
:10030000186019E059F8041B204604EB870291613C
:10031000E1688847012F064618D1E069002820DAF5
:1003200025F020051DE0D8F8180000EB800006EB52
:1003300040003038C8F818002046E1688847064673
:1003400003F0B9FC0028EED1012F0AD02E2E08D1DF
:100350002046E16888477F1C0646022F45F02005AD
:10036000C4DBA069002803DA404245F00105A06122
:10037000E80701D025F01005A6B1A6F14100192823
:1003800002D8203645F400654A46314620462560AD
:100390004D46FFF7E5FE60B1012807D0ED1D25F0C1
:1003A000070000E007E000F1080978E705F104091B
:1003B00075E730467AE7206ABDE8F09F1C3D0000F3
:1003C0004FF0000200B5134694469646203922BFEE
:1003D000A0E80C50A0E80C50B1F12001BFF4F7AF39
:1003E000090728BFA0E80C5048BF0CC05DF804EB1B
:1003F000890028BF40F8042B08BF704748BF20F889
:10040000022B11F0804F18BF00F8012B704700003D
:100410004FF0013C50F8042B51F8043B9A4221D193
:10042000A2EB0C03934313EACC1317D150F8042B1F
:1004300051F8043B9A4215D1A2EB0C03934313EA03
:10044000CC130BD150F8042B51F8043B9A4209D13C
:10045000A2EB0C03934313EACC13DBD04FF0000064
:10046000704700BFD01A01BAB1FA81F101F018014A
:1004700022FA01F0CB40C1F12001DBB2C0B2C01AB8
:100480002CFA01F3D11A914311EAC311E6D1704756
:100490007047704770472DE9F0470D4699469246E0
:1004A000044600F124080168880604D5E06921F0BB
:1004B0001001216000E00120A84201DD471B00E09F
:1004C0000027A1697A1902EB0900081AA0612078B7
:1004D000C00602D42046AFF30080002608E0D4E92D
:1004E00001211AF806009047206A401C761C206201
:1004F0004E45F4DB2078C0060AD52046AFF30080D5
:1005000006E0D4E9012130209047206A401C206297
:10051000381EA7F10107F4DC07E0D4E9012118F83F
:1005200005009047206A401C2062281EA5F10105A5
:10053000F3DC2046AFF300802078000602D50220CD
:10054000BDE8F0870120FBE770472DE9FF4F0C461F
:100550001E464FF0FF378BB0D2E90001DDF8608016
:100560000A908A46C1F30A5505B93D46002108465E
:100570004FF00000BAF1000F00F4400005DA00EB84
:1005800080004FF4400101EA50004FEA9059B9F160
:10059000010F00DDB9460A9850EA4A000ED044F631
:1005A0001050A5F2FF3545432F14B8F1000F1ED0AF
:1005B0007542291E1EDDC9F100021CE0B8F1010FD1
:1005C0004FF0000001D0302103E0F24305E0215458
:1005D000401CB042FBDB30460022002121540B9925
:1005E000C1F80880C1E900200FB0BDE8F08FBD1B45
:1005F0006D1CDEE74A4600DA694206A800F068FA98
:1006000006AB93E8070003AB83E8070050460A995E
:1006100000F010FF8DE80700A0F500501F38009093
:100620000398002D0ADD42F21F014A4608440023C8
:1006300003A90390684601F079F909E0A0F500509C
:100640004A461F38002303A90390684601F083F946
:100650008DE807000004000C03D04FF0FF30410884
:1006600000E01046B8F1000F03D0002200921546BA
:100670001EE0751E05D400F08DF9303262556D1EF6
:10068000F9D5B3460122084302D000227F1C04E0C2
:100690002078302801D100227F1E002A099784D0BB
:1006A0001DE0112D07DA00F075F9303262556D1C2E
:1006B00050EA0102F5D1084302D00098C8B10EE01B
:1006C0000021681E05E0235C625C63542254401ED6
:1006D000491C8142F7DBAB46A81B401E0990002055
:1006E00004F80B000B98099AC0F80880C0E9002BA9
:1006F0007AE711264FF0000857E72DE9F04F8846BA
:100700000446D21D22F0070191B0D1E90001CDE9E4
:100710000A0103F0ACFA02460B98C00F01D02D205D
:1007200007E02068810701D52B2002E0202101EAA3
:10073000C000032A099001D0072A05DB0346414681
:10074000204600F085F90BE12078800601D5E069AC
:1007500000E00620B8F1650F814606D0B8F1660FBB
:1007600018D0B8F1670F70D131E00020B9F1110F46
:10077000009001DB112301E009F101030AAA01A99C
:100780000CA8FFF7E2FEDDE90C70002609F1010577
:10079000834647E001204B4600904FF000470AAAED
:1007A00001A90CA8FFF7D1FEDDE90DB00C995D465B
:1007B000002610B909F101000D18B9EB050003D4AA
:1007C000C0F1FF3609F10105A5EB09002BE0B9F1F5
:1007D000010F01DA4FF001090020B9F1110F00906B
:1007E000484601DD112300E003460AAA01A90CA82E
:1007F000FFF7ABFEDDE90C704D46002683462078FE
:1008000000070AD4AB4500DA5D4601A8012D04DDDE
:10081000411911F8011C302907D04F4502DA17F1B0
:10082000040F04DA012082460FE06D1EEEE7002F70
:1008300002DCED1B3E4403E0781CA84200DD7D1C79
:10084000B81B00F1010A4FF000472078000703D4DD
:10085000AA4501DB4FF0FF3A0021B7F1004F0DF13F
:1008600043088DF8431024D002202B23002F01DAF7
:100870007F422D230A21021EA0F1010000DC5FB19E
:1008800097FBF1FC97FBF1F201FB1C7C17460CF186
:10089000300C08F801CDEEE7A8F1010003702188C3
:1008A000090501D5452100E06521A0F1010800F806
:1008B000011C09980FA9A1EB0807FF1D00B1012039
:1008C000411901EBEA70A1693844081A401EA06181
:1008D0002078C00602D42046AFF30080099828B1E2
:1008E000D4E901219047206A401C20622078C0068C
:1008F00022D52046AFF300801EE0002E04DBB34576
:1009000002DD01A8805D00E03020D4E9012190479C
:10091000206A401C2062761CAAF101005FEA000AEE
:100920000AD100F033F8C0680168405CD4E90121C5
:100930009047206A401C2062281EA5F10105DCDCDE
:1009400007E0D4E9012118F8010B9047206A401C08
:100950002062381EA7F10107F3DC2046AFF30080C8
:10096000032011B041E60000074B70B50D467B44F3
:1009700000F05BF80446284600F01CF910B14FF077
:10098000FF3070BD204670BD7F33000000487047C7
:100990002003002030B5B0F10A024FEA900E71F149
:1009A00000034EEA817EB0EB0E0061EB91014FEA4D
:1009B000101E4EEA017E10EB0E0041EB11114FEAC2
:1009C000102E4EEA016E10EB0E0041EB11214FEAA2
:1009D000104E4EEA014E10EB0E0041EB1141401853
:1009E00041F100014FEAD00040EA41704FEAD101E5
:1009F00010EB80054FEA810444EA907444EB010453
:100A00006D1944EB0404521BA3414FF0000348BF8F
:100A10000A3200D530BD401C41F1000130BD00005C
:100A200001694A1C02610878704700B58FB0CDE9B2
:100A300001310021059105497944CDE903101146A2
:100A40006846FFF721FC0FB000BD0000E5FFFFFF87
:100A50002DE9F0411F46044603260168072A01F4E8
:100A6000006004DB08B116A505E016A503E008B197
:100A700015A500E015A521F010002060A069C01E9A
:100A8000A0610FB1401EA0612046AFF300804FB1BE
:100A9000D4E9012138469047206A401C2062C01CDE
:100AA000206206E0206AFAE7D4E9012115F8010B7B
:100AB0009047761EF8D22046AFF30080BDE8F08163
:100AC0004E414E006E616E00494E4600696E6600F2
:100AD0002DE9F047814616468AB0354878440DC85E
:100AE0008DE80D0032487844801C03AC0DC884E8C2
:100AF0000D0041F69B300844372190FBF1F290FB4A
:100B0000F1F5A5F1800501FB12041B3C02D56442FE
:100B1000012000E00020DFF898A080460027FA447A
:100B2000AAF1BE0A0EE0E0070AD03246684607EB9B
:100B3000470101230AEB810100F00DFF8DE807005A
:100B400064107F1C002CEED1194F7F44AE3F19E09A
:100B5000E80715D007EB04100DF1180A90E80E0015
:100B60008AE80E00C068F04201D198190890324618
:100B7000012306A903A800F0EEFE03AB83E80700FB
:100B80006D10641C002DE3D14FF00103324669461D
:100B9000B8F1000F03A802D000F0C8FE01E000F099
:100BA000DAFEC9E90001C9F808200AB0BDE8F087FB
:100BB00068350000007B00F08000704710B54248A7
:100BC0005421FFF7FDFB41485421FFF7F9FB404852
:100BD0005421FFF7F5FB3F493B483C4A3F4B086037
:100BE0003D490A603A491960531C0365481C106569
:100BF000012008653B48344A39A1784400F022F9C5
:100C000020B9384878440A3800F0C1F937482F4AEB
:100C100035A1784400F016F920B9344878440A38F0
:100C200000F0B5F932482A4A2FA1784400F00AF9B9
:100C300020B92F4878440A3800F0A9F94023224807
:100C4000DC000021224600F0D9F820B12548784484
:100C5000543800F09CF91D4822464023002100F042
:100C6000CDF820B121487844543800F090F9184864
:100C700022461023002100F0C1F8002806D01C48AD
:100C80007844BDE81040563800F081B910BD1048D6
:100C900070B5006D20F001040B4800F049F90B48D5
:100CA00000F046F90A4800F043F909E0206D20F011
:100CB0000105204600F03CF9204600F078F82C466B
:100CC000002CF3D170BD0000040200205802002067
:100CD000AC0200205C0000206000002064000020C6
:100CE0007200000062340000770000004E34000003
:100CF0003A3400000EB5CDE9000100F0DFFA0290B1
:100D000069460120ABBE0EBD08B5694600900220C1
:100D1000ABBE08BD1FB58DE8070069460520ABBE18
:100D200004B010BD1FB58DE80F0069460620ABBEAC
:100D3000F6E708B5694600900920ABBE08BD1CB5B2
:100D4000CDE9000169460A20ABBE1CBD704708B55D
:100D5000694600900C20ABBE08BD000000487047FB
:100D6000000300207546FFF7F9FFAE46050069460F
:100D7000534620F00700854618B020B5FFF72AFA41
:100D8000BDE820404FF000064FF000074FF000088C
:100D90004FF0000B21F00701AC46ACE8C009ACE80D
:100DA000C009ACE8C009ACE8C0098D46704770B511
:100DB0000446051F00F0F4F80068002C14BF4468D6
:100DC00070BD002C18BFAC423CBF20466468F8D30D
:100DD00001680A18AA4218BF456003D12A6805466F
:100DE0001144016028684119A1421CBF6C6070BDAC
:100DF0006168696021680844286070BD70B5C46886
:100E0000A50713D0650211D4B2F5807F09D0B2F5E1
:100E1000007F06D0B2F5806F08D1012300F12401D4
:100E200006E05D1E6FF07F46B54201D3012070BD24
:100E30000161C361416024F470611143C16000200D
:100E400070BD00002DE9F0410C46074616461046DD
:100E500000F06EF82078611C61280AD0722802D058
:100E600077283CD102E00125002405E00225042476
:100E700002E0082448F2020511F8010B2B2806D0E5
:100E8000622809D011F8010C74280AD00BE045F053
:100E9000030544F00204EFE745F0040544F00104C3
:100EA000EAE744F0100438462146FFF723FF411CCF
:100EB00015D00021316171604FF40071F560F1616E
:100EC0007061200704D530460222002100F0E2F8CC
:100ED000306D40F0010030653046BDE8F081002003
:100EE000FBE72DE9F0410D460646104C206DC10789
:100EF00004D0410804D020F00104F7E722460EE0B8
:100F0000542000F098F807000ED0206D47F0010142
:100F10000843542120653846FFF752FA3A462946DD
:100F20003046BDE8F0418DE70020D6E704020020FE
:100F30002DE9F04704464FF000094FF0FF37C56830
:100F4000D4E90486A80707D0204600F053F93046BC
:100F5000FFF7DAFE002802DA3846BDE8F0872805F8
:100F600002D54046FFF723FF4C212046FFF728FA21
:100F7000206D20F0010020654846EEE710B50446DC
:100F8000AFF300802046BDE81040FFF70EB910B562
:100F900000F07AF9BDE8104000F070B97047000029
:100FA000004870470803002070477047704770473B
:100FB00038B504460A4600206946AFF30080002891
:100FC00008BF38BD02460099204600F0A4F9012070
:100FD00038BD012000F0F3B9F8B5AFF30080054645
:100FE00000200C46102000BF0646A819A0420DD9CB
:100FF000324669460020AFF30080070008BF00F0CA
:10100000DEF90098A04218BF0546C419FFF7C8FFD3
:1010100005600746F01D20F007004619284600F03D
:1010200073F9B44208BFF8BDA21B31463868BDE869
:10103000F84000F070B970B50646FFF7B1FF0568DB
:1010400006F10B0020F00704B4429CBF002070BDE5
:101050002B466A68BAB11068A04210D304F10801A7
:1010600088423CBF5068586007D3516810194160EE
:101070001168091B016058601460101D70BD134693
:101080005268002AE7D121462846FFF791FF002841
:10109000DED170BD2DE9F041044616460D46476984
:1010A000007B80072ED03846FFF743FE50BB3EB38F
:1010B000012E02D0022E25D104E0204600F045F991
:1010C00005441DE03846FFF742FEE168002841F084
:1010D0001001E16005DA204600F058F80120BDE873
:1010E000F081C9030BD56268E16A914200D81146CC
:1010F000A26911442269891A814200DD084605442B
:10110000002D01DA0220EAE7E16A6068E2688142C4
:1011100006D29103E06203D522F4003141F01002BF
:10112000A6690027AE4213DCE16A814201D90B4671
:1011300000E0034603EB060C2369ACEB030CAC4563
:1011400006DD814201D98C4600E084469C4505D1EC
:10115000A760276042F02000A5620DE0AD1BE669A4
:10116000AE1B8142A66000D90846C01A281A20602A
:101170005819606022F0200003490840E060002018
:1011800084F84870ABE70000BFCFD7FFC16821F4F7
:10119000001141F08001C160002181600160704751
:1011A0002DE9F047814614460E464FF0FF3832488D
:1011B000D5685769054209D03846A169FFF7BFFDD8
:1011C000002811DB2C48C0430540E5602B46324621
:1011D00049463846FFF79EFDA16920F00042B21A49
:1011E00011440028A16103D02046FFF7CFFF4046FD
:1011F000BDE8F08770B504460569C06A6168884239
:1012000000D80846E16821F42011E160C90312D535
:10121000A84208D02246411B2846FFF7C1FF10B163
:101220004FF0FF3070BD0020E562C4E90150E06876
:1012300020F48030E060002070BD10B50446C06826
:1012400020F02000E060A16AA06988420DD020460D
:10125000FFF7D0FFE06820F4405040F01000E0605D
:10126000A06AA0612069E062606044F24001E06829
:101270008843E06010BD000010000200002801D08B
:1012800000F03CB87047000010B5014602A000F025
:101290007DF8012010BD0000534947525452454487
:1012A0003A2052656469726563743A2063616E27FF
:1012B00074206F70656E3A200000000010B5431C6A
:1012C00002E010F8011B71B18107FAD14FF0013231
:1012D00002C88C1A8C4314EAC211F9D0C01A0A064B
:1012E00003D0C01E10BDC01A10BD0A0401D0801E5C
:1012F00010BD0902FCD0401E10BD0000014918209D
:10130000ABBEFEE72600020000210160C0E901102B
:10131000704710207047034640688C46002818BF6D
:1013200088423CBF03464068F8D318681844884296
:1013300007D00CF1030020F00700001D411A521ADB
:101340000146081D0A60FFF732BD10B50146C268AC
:10135000900703D0900607D5886A0AE000F03EF8AF
:1013600001210160881E10BD8B69486818440B6913
:10137000C01A91F848301BB191F84910401A10BDBD
:101380001103FCD50028FADD401E10BD70B50546DE
:101390000C460A2000E06D1C00F018F835B12878E2
:1013A0000028F8D102E0641C00F010F814B1207895
:1013B0000028F8D1BDE870400A2000F007B810B549
:1013C00000F010F8BDE81040FFF758BF08B56946B7
:1013D0008DF800000320ABBE08BD00000048704738
:1013E0000003002010B5012805D0002103A0FFF75D
:1013F000CDFF012010BD09A1F8E700005349475275
:10140000544D454D3A204F7574206F6620686561D4
:1014100070206D656D6F7279000000003A2048659C
:101420006170206D656D6F727920636F7272757077
:10143000746564005FEA400C08BF91F0000F4FEA4A
:101440008C234FEAC12243EA51514FEA1C5018BF86
:1014500000F5F0404FEA300018BF41F000415FEA6C
:101460006C5C00F02980BCF1FF3F08BF40F0804079
:101470007047130C06BF12044FF0100C4FF0000C15
:10148000130E04BF12020CF1080C130F04BF12015B
:101490000CF1040C930F04BF92000CF1020CD30F5B
:1014A00004BF52000CF1010C11464FF00002A0F1F4
:1014B0001F00A0EB0C00704711F0004F08BF7047F1
:1014C00031F000413FF4D5AF0B0C06BF09044FF0DB
:1014D000100C4FF0000C0B0E04BF09020CF1080CAD
:1014E0000B0F04BF09010CF1040C8B0F04BF890022
:1014F0000CF1020CCB0F04BF49000CF1010CCCF134
:101500002003A0EB0C0022FA03F302FA0CF241EAEA
:10151000030100F10100704720F07F4C80EA0300D6
:1015200023F07F47ACEB070303F57C5300F000404A
:1015300003F1FF032DE980494FEA154B09B44FEA47
:10154000144325EA0B4E24EA03480FF2042606EB67
:10155000132749083E785FEA320203FB0667C7F5A6
:10156000000707FB06F64FEA54374FEAD64606F166
:10157000020607FB066CCCF1005C4FEA1C472CEA24
:10158000074C07FB06F40CFB06F504EB15464FEA87
:10159000961634BF00204FF000404FEAD13706FBCB
:1015A00007FC4FEA1C4C0CFB0BF7D21B03FB0CF7A0
:1015B00061EB07010CFB0EF7B0EB074072EB174233
:1015C0000CFB08F734BFA2EB0742B2EB074261EB1A
:1015D00017414FEA0C444FEA910706FB07FC4FEA1C
:1015E0001C4C0CFB0BF7B0EBC74072EB573203FB04
:1015F0000CF734BFA2EBC742B2EBC74261EB5731E5
:101600000CFB0EF7B0EBC70072EB57720CFB08F740
:1016100034BFA2EBC702B2EBC70261EB5771039F65
:101620004FEA816141EA921104EBCC044FEAD137D1
:101630004FEA826206FB07FC42EA90124FEA8060A2
:101640004FEA1C4C0CFB0BF7D21B03FB0CF761EBB6
:1016500007010CFB0EF7B0EB074072EB17420CFBD7
:1016600008F734BFA2EB0742B2EB074261EB174128
:101670004FEA8C554FEA910704EB9C2406FB07FCCC
:101680004FEA1C4C0CFB0BF7B0EBC74072EB573228
:1016900003FB0CF734BFA2EBC742B2EBC74261EBCE
:1016A00057310CFB0EF7B0EBC70072EB57720CFB17
:1016B00008F734BFA2EBC702B2EBC70261EB577168
:1016C00015EB4C254FEA816141EA92114FEA8262A3
:1016D0004FEAD13742EA901206FB07FC44F10004BE
:1016E0004FEA80604FEA1C4C0CFB0BF7D21B03FB4C
:1016F0000CF761EB07010CFB0EF7B0EB074072EB48
:1017000017420CFB08F734BFA2EB0742B2EB0742CB
:1017100061EB174115EB1C154FEA813141EA92410B
:101720004FEA823242EA90424FEA80304FEA0C762A
:1017300044F1000448EA03434EEA0B484FF0000E20
:10174000B2EB080C71EB030724BF624639464EEB3F
:101750000E0E4FF0000B0018524149414BEB0B0BA2
:10176000B2EB080C71EB03077BF1000B24BF624660
:1017700039464EEB0E0E4FF0000B00185241494116
:101780004BEB0B0BB2EB080C71EB03077BF1000B7F
:1017900024BF624639464EEB0E0E51EA020718BFCF
:1017A00046F0010616EB0E7655F1000254F10001E9
:1017B00003D5BDE88901BDE80088BDE88901BDE821
:1017C0000048B619524141EB0101A3F101037047F2
:1017D00080807F7E7D7C7B7A79787776767574736E
:1017E000727171706F6E6E6D6C6C6B6A6A6968682D
:1017F000676666656464636362616160605F5F5EC3
:101800005E5D5D5C5C5B5B5A5A5959585857575638
:10181000565555555454535352525251515050509D
:101820004F4F4F4E4E4D4D4D4C4C4C4B4B4B4A4AEF
:101830004A49494948484847474747464646454533
:10184000454444444443434343424242424141416C
:10185000002B9C4630D477002BD01CB54FEA3707BD
:1018600003B44FF010004FF01001BAF1000F06D092
:10187000BCF1000FDCBF40F0080040F008014FF061
:1018800000000FBCBDE810400BF1010BBBF1010FD4
:1018900008BF5FEA170722BF12F1010211F101012F
:1018A0004FF0004143F1000300F0004043EA000024
:1018B0007047F9D35708D0E746EA064613F1400FC0
:1018C0004FEA16461FDD13F1200FDFBF16430A460D
:1018D000002120335B42BED0C3F1200746EA064612
:1018E00002FA07F74FEA164646EA0706C3F1200751
:1018F00022FA03F201FA07F721FA03F14FF000038D
:1019000042EA0702A7E746EA020646EA06464FEA27
:10191000164646EA0106BCBF46EA0646360C4FF0BC
:1019200000034FF000024FF0000194E72DE9804CD6
:101930009A46934670B491E8380007C831EA400CE3
:1019400048BF34EA430C03D5FFF7E6FDFFF780FFFD
:10195000F0BCBDE8008C2DE9804C9A46934670B4EB
:1019600091E8380007C810F0804F08BF13F0804F8F
:1019700003D100F005F8FFF76BFFF0BCBDE8008C69
:1019800020F07F4780EA030023F07F4C07EB0C0335
:10199000A3F57C5300F00040A3F1FE0392F0000F8A
:1019A00000F0B38095F0000F00F077802DE9014939
:1019B0004FEA11404FEA144621EA004800FB06FCBA
:1019C00024EA064708FB06F607FB08F800FB07F7C2
:1019D00018EB06484CEB164C4FEA124B18EB074835
:1019E0004FEA15464CEB174022EA0B4E0BFB06FC68
:1019F00025EA06470EFB06F607FB0EFE0BFB07F774
:101A00001EEB064E4CEB164C4FF000061EEB074E3D
:101A10004CEB174B18EB0B0840F1000018EB0E0BCA
:101A200058EB000840F100008F1A4FF000013CBF56
:101A3000C943661B14BFB5EB040C00213CBFC9436E
:101A4000F61B4FEA17444EEA8E0E27EA04454FEA8A
:101A50001C4704FB07622CEA074C05FB07F70CFB4D
:101A600005F604FB0CFC16EB074642EB174216EB9F
:101A70000C4642EB1C421BEB060658EB02024141AE
:101A800046EA9E0601D5BDE80189B619524141EBEF
:101A90000101A3F10103BDE801894FEA14454FEAB2
:101AA000114724EA054621EA074C05FB07F406FB2B
:101AB00007F70CFB06F105FB0CFC11EB074144EBAF
:101AC00017444FEA124711EB0C4144EB1C4422EA45
:101AD000074C05FB07F206FB07F70CFB06F605FBB8
:101AE0000CFC16EB074642EB174216EB0C4642EB9A
:101AF0001C456A1854F1000148BF7047B61952419D
:101B000041EB0101A3F10103704795F0000F37D0BD
:101B10004FEA11424FEA144721EA024624EA074CF1
:101B200002FB07F106FB07F70CFB06F402FB0CFCBB
:101B300014EB074441EB17414FEA154714EB0C44F3
:101B400041EB1C4125EA074C02FB07F506FB07F7B2
:101B50000CFB06F602FB0CFC16EB074645EB1745A3
:101B600016EB0C4645EB1C42121951F1000148BF1F
:101B70007047B619524141EB0101A3F101037047CF
:101B80004FEA14454FEA114724EA054621EA074C7B
:101B900005FB07F106FB07F70CFB06F24FF000060A
:101BA00005FB0CFC12EB074241EB174112EB0C4218
:101BB00051EB1C4148BF7047921841EB0101A3F162
:101BC0000103704770B5044600688168C943C907BE
:101BD00017D1816821F00101816000F093FC054676
:101BE0000AE000BF00F08EFC401B022804D92068E8
:101BF0008068C043C00706D020688068C043C00723
:101C0000F0D0002070BDA06A40F01000A062E06A31
:101C100040F00100E062012070BD0000F8B5002630
:101C20000446009600688168C943C9072DD08168C1
:101C300041F001018160164816490068B0FBF1F0DF
:101C400000E0401E00900028FBD100F05BFC054640
:101C500016E000BF00F056FC401B022810D9206897
:101C60008068C043C0070BD0A06A40F01000A0629B
:101C7000E06A40F00100E06284F824600120F8BDD1
:101C800020688068C043C007E4D10020F8BD000090
:101C90005000002040420F00FEE7000070B5002415
:101CA000322002F00FF80D4E4FF480552946304691
:101CB00000F01EFC50B9642002F004F829463046BA
:101CC00000F016FC08B1012400E0FF24294630464C
:101CD00000F00EFC0028F9D1204670BD000C014038
:101CE00070B5054600F056F8FFF7D8FF114C20708C
:101CF00000F022F8607000F01FF8A07000F01CF8EF
:101D0000E07000F019F8207100F016F8E0806678B5
:101D1000A17823797218E1780A441A44824207D1E3
:101D2000084602F0D9F82860304602F0D5F868601D
:101D300070BD0000540000202DE9F041144E002435
:101D40004FF001084FF480573946304600F0D0FB81
:101D50000028F9D0322001F0B5FF3946304600F0B6
:101D6000C7FB0028C4F1070108FA01F00ED0284390
:101D7000C5B23946304600F0BBFB0028F9D1641CDF
:101D8000E4B2082CE0D32846BDE8F0818543F0E7B3
:101D9000000C014070B500F021F80F4D4FF4805455
:101DA0002146284601F057FD00222146284600F032
:101DB000A4FB44F2506001F085FF01222146284631
:101DC00000F09BFB1E2001F07DFF21462846BDE868
:101DD000704001F036BD0000000C01400E48016863
:101DE00021F080710160016841F0807101600B4851
:101DF000016821F001010160016841F00101016009
:101E00000021416000BF00BF00BF406808B1002052
:101E10007047012070470000FCED00E0001000E07A
:101E20007047802000F068BAF8B50024009490F85C
:101E300024202546012A12D0012280F824204A6855
:101E40001F23072A0DD20668776B521E02EB82020F
:101E500093409F430B6893401F43776319E0022030
:101E6000F8BD06680D2A0AD2376BD21F02EB820238
:101E700093409F430B6893401F43376309E0F76A21
:101E80000D3A02EB820293409F430B6893401F433D
:101E9000F7620A68072306680A2A0AD3F7680A3A2B
:101EA00002EB420293409F438B6893401F43F760CD
:101EB00008E0376902EB420293409F438B689340EE
:101EC0001F4337610A68102A01D0112A20D1124B12
:101ED00002689A4217D193681B0219D4936843F49D
:101EE000000393600968102912D10C490C4A096853
:101EF000B1FBF2F101EB8101490000E0491E0091C4
:101F00000029FBD104E0816A41F0200181620124B3
:101F100080F824502046F8BD0024014050000020E5
:101F200040420F000068C06C704700002DE9F0418E
:101F30004FF0000704003D467ED0A06A002628B975
:101F4000E66284F82460204600F07EF82046FFF721
:101F500039FEA16AC90600D420B1A06A40F0100081
:101F6000A06269E0A16A21F4885141F00201A162F6
:101F70006268E169237B0A4347EA43010A43A16897
:101F80004FF48077B94209D0012907D05FF00001F2
:101F900094F814C0BCF1010F02D00AE03946F7E70B
:101FA000F3B1A36A43F02003A362E36A43F00103A1
:101FB000E3622368D3F804C02CF4694C4CEA010CAA
:101FC000C3F804C021688B68DFF870C003EA0C0313
:101FD00013438B60A168B9420BD0012909D00CE0F2
:101FE000DFF85CC0A3690CEB43330B4343F400619F
:101FF000DFE7218A0D05A5F580152168CB6A23F45A
:1020000070032B43CB62216889680E4B19409142C3
:1020100008D1E662A16A21F0020141F00101A1624A
:10202000BDE8F081A06A20F0020040F01000A0623C
:10203000E06A40F00100E0620120F1E7FDF7E1FF16
:1020400000E0FFFFFE0E1FFF10B586B000210091DB
:102050000191029103911A4C03681A4903221A480C
:10206000A34212D18B6943F400738B618B6903F433
:10207000007304938B6943F004038B6189690092B8
:1020800001F004010192049115E0104CA34215D116
:102090008B6943F480638B618B6903F480630493E1
:1020A0008B6943F004038B61896901F00401049199
:1020B0000121CDE90012694600F02AF906B010BDF1
:1020C00000240140001002400008014000280140A7
:1020D00070B5044690F8240001280DD0012084F842
:1020E00024002046FFF79AFD02004FF0000005D0C3
:1020F00084F82400104670BD022070BDA16A40F231
:102100000123994341F48071A1621F4D23681F4947
:10211000AB4218D10E6816F4702F14D0A66A46F49C
:102120008016A6620E68760505D5A66A26F40056C6
:1021300046F48056A662A66AF6040AD5E66A26F038
:102140000606E66206E0A66A26F48016A6625E68C7
:10215000E9E7E06284F824006FF00200186020686C
:102160008368C3F34243072B05D1A84208D109680D
:1021700011F4702F04D0816841F480118160B9E7B7
:10218000816841F4A001F9E70028014004240140DE
:1021900010B5044690F82400012807D0012084F8E7
:1021A00024002046FFF70EFD10B107E0022010BD0D
:1021B000A16A21F4885141F00101A162002184F853
:1021C000241010BD10B590F821100022022905D06E
:1021D0000421816380F82020012010BD01680B6874
:1021E00023F00E030B6001680B6823F001030B6002
:1021F00090F84030C46B012101FA03F3636080F86A
:10220000211080F82020104610BD000010B590F875
:1022100021100024022903D00421816301243DE020
:1022200001680A6822F00E020A6001680A6822F05A
:1022300001020A601A4A0168914201D1012121E09C
:10224000174A1432914201D110211BE0144A28325E
:10225000914201D1891515E0114A3C32914201D1D8
:1022600089140FE00E4A5032914202D14FF480316E
:1022700008E00B4A6432914202D14FF4801101E030
:102280004FF08071064A083A5160012180F8211010
:10229000002180F82010416B01B18847204610BD15
:1022A0000800024070B5044600F02CF90546601C99
:1022B00002D004480078044400F024F9401BA042F6
:1022C000FAD370BD4400002010B580280CD1002244
:1022D0002021064800F011F90A23BDE810401F2212
:1022E0000349044801F0EEB810BD0000000C0140A5
:1022F00024000020BC010020044910B50A680242F5
:1023000002D00860FFF7E0FF10BD00001404014098
:102310002DE9F84FDFF8B8910024A9F1040B23460A
:102320000F2709F1040AABF1040EC9E00125A5400D
:102330002A40AA427DD1674ED1F804C0ACEB060812
:10234000B44532D014DCBCF1030F3AD009DCBCF147
:10235000000F2AD0BCF1010F1CD0BCF1020F31D10B
:102360001DE0BCF1110F17D0BCF1120F2AD119E0FA
:10237000B8F5881F19D006DCB8F5803F15D0B8F540
:10238000801F1FD111E0B8F5001F0ED0B8F5041F53
:1023900018D10AE0CB6815E0CB681B1D12E0CB68B2
:1023A00008330FE0CB680C330CE08B682BB1012BAA
:1023B0004FF0080303D0456104E0042302E0056107
:1023C00000E00023FF2A01D8064601E000F10406E0
:1023D0004FEA840501D9A5F12005D6F8008007FA57
:1023E00005FC28EA0C0803FA05F548EA0508C6F8D2
:1023F00000804D68ED0062D5374DAE6946F00106AC
:10240000AE61AD6924F0030605F001050095334D7A
:1024100006EB050CDCF80850A607360F07FA06F89D
:1024200025EA0805DFF8B880404503D14FF00008E1
:1024300017E044E0DFF8AC80404502D14FF00108DE
:102440000FE0DFF8A480404502D14FF0020808E019
:10245000DFF89880404502D14FF0030801E04FF0CB
:10246000040808FA06F848EA0508CCF808804D6820
:10247000D9F80060ED024D4601D5164300E09643C1
:102480002E604D68DAF80060AD02554601D516435E
:1024900000E096432E604D68DBF80060AD035D46BA
:1024A00001D5164300E096432E604D68DEF80060CB
:1024B000ED03754601D5164300E096432E60641C7B
:1024C0000D682A46E5407FF431AFBDE8F88F000083
:1024D00008040140000011100010024000000140FB
:1024E00000080140000C01400010014000140140B0
:1024F0008068084000D0012070470AB10161704730
:102500000904FBE701488068704700004400002090
:1025100002488168027811448160704744000020BD
:10252000074810B5016841F010010160032000F078
:1025300075F80F2000F006F800F024F8002010BD18
:102540000020024070B50D4D04464FF47A71287892
:10255000B1FBF0F00A490968B1FBF0F000F058FB5C
:1025600048B9102C07D200222146501E00F036F840
:1025700000206C6070BD012070BD00004400002090
:10258000500000200C4808B5816941F001018161CB
:10259000816901F001010091C16941F08051C1617F
:1025A000C06900F0805000900448416821F0E0616B
:1025B00041F00071416008BD001002400000014080
:1025C000002809DB00F01F02012191404009800032
:1025D00000F1E020C0F8001170470000F0B40E4B8D
:1025E0001B680C46C3F30223C3F10705042D00D971
:1025F0000425191D072901D2002300E0DB1E012656
:1026000006FA05F1491E214099409E40761E16406B
:102610003143F0BC01F03FBB0CED00E0064900F097
:10262000070208684FF6FF03184040EA0220034AF9
:1026300010430860704700000CED00E00000FA0550
:102640002DE9F84305460078354CC00754D0E069C1
:102650000026C00008D4E06940F08050E061E069E5
:10266000012600F0805000902E480168C90512D460
:102670000168804641F480710160FFF743FF07461F
:1026800005E000BFFFF73EFFC01B642823D8D8F841
:102690000000C005F6D5206A10F4407021D0A9884A
:1026A00001F4407181421CD0206A1F49012220F4AC
:1026B00040700A6000220A602062C00711D0FFF754
:1026C00021FF074641F2883808E000BFFFF71AFFF4
:1026D000C11B414502D90320BDE8F883206A800769
:1026E000F4D5206A696820F44070084320621EB166
:1026F000E06920F08050E0612878800705D56068A7
:10270000A96820F44040084360602878C00605D5D9
:102710006068E96820F48000084360600020DBE71F
:102720000010024000700040400442422DE9F04792
:102730000F46050061D0434E306800F00700B842F4
:1027400009D2306820F0070038433060306800F06C
:102750000700B84251D128683B4C810712D5400789
:1027600003D5606840F4E06060602878000703D516
:10277000606840F4605060606068A96820F0F00014
:10278000084360602878C00728D06868012810D006
:102790002168022810D0890700292EDA616821F00B
:1027A000030101436160FFF7ADFE804641F28839C5
:1027B0000DE021688903EFE78901EDE7FFF7A2FE4D
:1027C000A0EB0801494502D90320BDE8F087606805
:1027D000696800F00C00B0EB810FEFD1306800F0B9
:1027E0000700B8420BD9306820F00700384330604A
:1027F000306800F00700B84201D00120E5E72878F2
:10280000400705D56068E96820F4E060084360602F
:102810002878000706D56068296920F4605040EAEE
:10282000C100606000F03EF86168084AC1F303111E
:10283000515CC8400649086006480068FFF782FE00
:102840000020C2E70020024000100240A03F000824
:102850005000002048000020014800687047000038
:10286000500000200448054900684968044AC1F343
:102870000221515CC8407047500000200010024007
:10288000B03F00080448054900684968044AC1F39C
:10289000C221515CC8407047500000200010024027
:1028A000B03F00080E4A51680E4801F00C03042B9B
:1028B00011D0082B0FD10C48C1F38343C903C05C6E
:1028C0000AD55168084AC1F34041921E515C054A3D
:1028D0005043B0FBF1F07047044948437047000093
:1028E0000010024000127A00903F000800093D00ED
:1028F0002DE9F84F040070D02078C04DC00749D0B2
:102900006868C0F38100012807D06868C0F38100BF
:10291000022809D16868C00306D52868800339D524
:1029200060680028E7D035E06068B0F5803F0BD0E4
:1029300010B1B0F5A02F11D0286820F480302860A5
:10294000286820F4802002E0286840F48030286065
:10295000606890B1FFF7D6FD06460AE0286840F4AB
:1029600080202860F0E700BFFFF7CCFD801B6428C3
:1029700073D828688003F7D50CE0FFF7C3FD06463F
:1029800005E000BFFFF7BEFD801B6428F0D8286873
:102990008003F7D420789A4E80074FF001094FF05A
:1029A000000839D5686810F00C0F07D06868C0F3CC
:1029B0008100022809D16868C00306D4286880070E
:1029C00014D52069012808D110E02069B0B1C6F8FB
:1029D0000090FFF797FD074605E00AE1FFF792FD3B
:1029E000C01B0228C4D828688007F7D52868616909
:1029F00020F0F80040EAC10028600DE0C6F8008031
:102A0000FFF780FD074604E0FFF77CFDC01B0228AE
:102A100023D828688007F7D4207800072CD5794878
:102A2000A169D9B1C0F80090FFF76CFD074604E03A
:102A3000FFF768FDC01B02280FD8686A8007F7D52A
:102A400071484FF4FA510068B0FBF1F0009000BFFC
:102A50000098411E0091FAD20EE080E0C0F800809C
:102A6000FFF750FD074604E0FFF74CFDC01B0228AE
:102A700075D8686A8007F7D42078400760D5E86980
:102A80000027C00008D4E86940F08050E861E86998
:102A9000012700F0805000905C480168C90513D4FC
:102AA0000168834641F480710160FFF72BFD824687
:102AB00006E000BFFFF726FDA0EB0A0064284ED811
:102AC000DBF80000C005F5D5E06801280AD008B1A0
:102AD000052813D0286A20F001002862286A20F017
:102AE000040002E0286A40F001002862E06841F238
:102AF000883B98B1FFF706FD82460BE0286A40F05C
:102B000004002862EEE700BFFFF7FCFCA0EB0A011F
:102B100059455AD8286A8007F6D50CE0FFF7F2FC31
:102B2000824605E0FFF7EEFCA0EB0A0159454CD8C0
:102B3000286A8007F6D41FB1E86920F08050E86168
:102B4000E06988B36968C1F38101022944D0022891
:102B5000C6F8608004D0FFF7D5FC044638E034E0C6
:102B6000FFF7D0FC074604E0FFF7CCFCC01B0228AF
:102B70002BD828688001F7D4206AB0F5803F05D1B2
:102B80006868A16820F4003008436860D4E908014F
:102B90000843696821F4741108436860C6F86090BE
:102BA000FFF7B0FC044606E025E000BFFFF7AAFCF3
:102BB000001B022809D828688001F7D51BE000BF58
:102BC000FFF7A0FC001B022802D90320BDE8F88F04
:102BD00028688001F4D40EE00128F7D06868226AE2
:102BE00000F48031914204D1616A00F4701088428F
:102BF00001D00120EAE70020E8E7000000100240D1
:102C00000000424280044242500000200070004018
:102C100010B5401EB0F1807F01D3012010BD4FF0F0
:102C2000E02460610F21601701F035F80020A061F9
:102C300007202061002010BD7047704770B590F8E4
:102C40003C20012A26D0012480F83C40022280F852
:102C50003D2003685A689D6822F070060A68324376
:102C60005A600D4B02689A4208D0B2F1804F05D0ED
:102C70000A4B9A4202D00A4B9A4204D1496825F085
:102C800080031943916080F83D40002180F83C109A
:102C9000084670BD022070BD002C014000040040B9
:102CA0000008004010B5040003D094F83D0010B1B6
:102CB00007E0012010BD002084F83C00204600F011
:102CC0001FF8022084F83D00211D206800F018FE46
:102CD000012084F8460084F83E0084F83F0084F820
:102CE000400084F8410084F8420084F8430084F8EE
:102CF000440084F8450084F83D00002010BD000029
:102D000008B5154A0168154891420ED1816941F410
:102D1000006181618069002200F40060009001215F
:102D20001920FFF75BFC192010E0B1F1804F11D1A1
:102D3000C16941F00101C161C069002200F00100D8
:102D4000009011461C20FFF749FC1C20BDE80840FC
:102D5000FFF736BC08BD0000002C01400010024007
:102D600090F83D10012901D001207047022180F820
:102D70003D100168CA6842F00102CA6000680B4950
:102D8000884208D0B0F1804F05D00949884202D06E
:102D90000849884204D1816801F00701062903D05F
:102DA000016841F00101016000207047002C0140E2
:102DB000000400400008004070B5044690F83C0054
:102DC0000025012817D0012684F83C60022084F8F1
:102DD0003D002068826822F0770222F47F42826000
:102DE0000868502838D00DDC20284FD005DC90B37F
:102DF000102811D14AE0022070BD302846D040286A
:102E00000AD13BE060282FD070280DD0B0F5805F4C
:102E100003D0B0F5005F12D0012584F83D6000209A
:102E200084F83C00284670BDCB68D1E901212068B8
:102E300000F09CFD2068816841F0770109E0CB68D3
:102E4000D1E90121206800F091FD2068816841F4FA
:102E500080418160E1E719E0CA684968206800F0B4
:102E600097FD5021206806E0CA684968206800F094
:102E7000A0FD6021206800F083FDCEE7CA684968A4
:102E8000206800F085FD40212068F4E722680146B3
:102E90001046F0E7704770B50446006801694FF0CE
:102EA0000005C943890715D4C168C943890711D4EE
:102EB000E91E016101202077206880698007204693
:102EC00002D0FFF7E7FF04E000F098F8204600F09A
:102ED00096F8257720680169C943490717D4C16866
:102EE000C943490713D46FF0040101610220207720
:102EF0002068806910F4407F204602D0FFF7CAFFA7
:102F000004E000F07BF8204600F079F8257720688F
:102F10000169C943090716D4C168C943090712D416
:102F20006FF008010161042020772068C0698007E4
:102F3000204602D0FFF7AEFF04E000F05FF8204625
:102F400000F05DF8257720680169C943C90617D4E8
:102F5000C168C943C90613D46FF01001016108208C
:102F600020772068C06910F4407F204602D0FFF728
:102F700091FF04E000F042F8204600F040F8257789
:102F800020680169C943C90708D1C168C943C90795
:102F900004D1891E0161204600F032F820680169E1
:102FA000C943090609D4C168C943090605D46FF0AD
:102FB000800101612046FFF73FFE20680169C94397
:102FC000490609D4C168C943490605D46FF04001D8
:102FD0000161204600F015F820680169C94389069F
:102FE0000BD4C168C943890607D46FF02001016181
:102FF0002046BDE87040FFF720BE70BD70477047A7
:103000007047704770477047F8B501680446086814
:10301000CA684B6910F00F0F4FF0000559D003F04C
:10302000010602F49077374365D0C10705D0D1057A
:1030300003D5616C41F001016164410705D5D907F1
:1030400003D0616C41F002016164810705D5D907A5
:1030500003D0616C41F004016164010707D502F0FF
:103060002001314303D0616C41F008016164616C5F
:1030700000293AD0800604D5900602D5204600F0FB
:10308000D9FC20684069616CC0F38010090700D446
:1030900060B3204600F0A7FC20684069400621D5B7
:1030A0002068143050E8001F21F0400140E8001271
:1030B000002AF5D1E06BA8B16D494163E06BFFF7E1
:1030C000A5F8002811D0E06B416B01B0BDE8F040DD
:1030D000084783060FD593060DD52046BDE8F84076
:1030E00000F0A8BC2046FFF78EFFF8BD2046FFF792
:1030F0008AFF6564F8BD266B2023012E7CD1C606AD
:103100007AD5D60678D508684868009048694FF0A7
:103110000206400640D5E16B086840680004000CD8
:10312000E8D0A28D8242E5D9E085886920282DD09B
:1031300020680C3050E8001F21F4807140E8001234
:10314000002AF5D12068143050E8001F21F0010159
:1031500040E80012002AF5D12068143050E8001F22
:1031600021F0400140E80012002AF5D184F84230F5
:10317000256320680C3050E8001F21F0100140E862
:103180000012002AF5D1E06BFFF71CF86663A08DF2
:10319000E18D401A81B22AE0A08DE18D401A81B202
:1031A000E08D0028A6D00029A4D022680C3252E875
:1031B000000F20F4907042E80007002FF5D120683E
:1031C000143050E8002F22F0010240E80027002FC1
:1031D000F5D184F84230256320680C3050E8002F88
:1031E00022F0100240E80023002BF5D16663204650
:1031F000FFF708FFF8BDFFE705062BD5150629D513
:1032000094F841002128F5D1A068B0F5805F01D184
:103210002069B0B1206A411C2162216800784860B1
:10322000E08C401E0004000CE084E3D12068C168FB
:1032300021F08001C1602068C16841F04001C16097
:10324000D8E7206A0088C0F308004860206A801C24
:103250002062E5E74006CDD55006CBD5CA682046AA
:1032600022F04002CA6084F8413000F078F9C1E7EA
:10327000D739000870B5040004D094F84100002547
:1032800010B106E0012070BD84F84050204600F0E7
:1032900023F8242084F841002068C16821F40051FB
:1032A000C160204600F028FC2068016921F49041AB
:1032B00001612068416921F02A0141612068C168EB
:1032C00041F40051C1606564202084F8410084F815
:1032D00042006563002070BD30B585B000240094C5
:1032E0000194029403940068184988422BD118482D
:1032F000C16941F40031C161C16901F40031049137
:10330000816941F0040181618069124D00F004007F
:10331000049004200090022001900320039069464D
:103320002846FEF7F5FF0820CDE900046946284647
:103330000294FEF7EDFF002201212620FFF74EF94F
:103340002620FFF73DF905B030BD000000440040E5
:10335000001002400008014090F84230202B01D0BC
:103360000220704721B11AB10023036300F020BC92
:10337000012070472DE9F05F3E49884278D13E4CEC
:10338000A1F5AA7600252078315C0D290DD0401CCE
:10339000C0B22070642800D3257020783118BDE8B1
:1033A000F05F01223348FFF7D7BF3554012060702A
:1033B00032A13448FDF72CF8334FDFF8D0804FF4BA
:1033C000805A4FF4006B00283ED031A12D48FDF704
:1033D0001FF8002838D030A12A48FDF719F8002836
:1033E00032D02FA12748FDF713F868B32EA1254846
:1033F000FDF70EF878B12EA12248FDF709F850B17B
:103400002EA12048FDF704F828B11CA11D48FCF7A7
:10341000FFFF0028C0D101222021B9463846FFF71E
:103420006CF80122514647464046FFF766F80122F4
:1034300059463846FFF761F85FF001024FF480719A
:103440004846FFF75AF8A7E700222021B946384638
:10345000FFF753F80022514647464046FFF74DF824
:10346000002259463846FFF748F80022E6E7FFE712
:10347000BDE8F09FBC010020000000204C45444FF7
:103480004E00000068000020000C014000080140D0
:103490000A4C45444F4E00000A4C45444F4E0A002A
:1034A0004C45444F4E0A00000A4C45444F464600E6
:1034B0000A4C45444F46460A000000004C45444F24
:1034C00046460A002DE9F843044690F841001F469D
:1034D00016460D46202802D00220BDE8F8837DB1B3
:1034E00076B100206064212084F84100FFF70AF8DB
:1034F000A6848046E684A068B0F5805F02D003E031
:103500000120EAE7206910B12E4600250EE00026D2
:103510000CE08021204600F066FBA0B9AEB116F8A1
:10352000010B21684860E08C401EE084E08C43463B
:103530004FF0000200970028EBD14FF040012046E9
:1035400000F051FB30B10320C7E735F8020BC0F3A0
:103550000800E6E7202084F841000020BDE770471E
:10356000FEE700003EB50024104800940194029448
:103570000D498460016004730475012505614FF4F1
:1035800060214460C161FEF7D1FC08B172B6FEE76C
:103590000095CDE9015469460448FEF745FC002832
:1035A00001D072B6FEE73EBD00240140CC000020F1
:1035B0003EB5002410480094019402940D498460A3
:1035C000016004730475012505614FF460214460B6
:1035D000C161FEF7ABFC08B172B6FEE7CDE900456C
:1035E000694605480294FEF71FFC002801D072B618
:1035F000FEE73EBD00280140FC0000202DE9F0431D
:1036000085B00024364800940194029403948169A3
:1036100041F020018161816901F0200104918169FB
:1036200041F004018161816901F004010491816923
:1036300041F0080181618069DFF8A89000F008007E
:1036400041F630050490002229464846FEF755FF12
:10365000DFF8948041F22337002239464046FEF7D6
:103660004CFF0095022601250396CDE901546946D9
:103670004846FEF74DFE4FF4A0708DE831006946D4
:103680004846FEF745FE802000901848CDE9010429
:1036900069464846FEF73CFE00970396CDE9015483
:1036A00069464046FEF734FE6802CDE90006032075
:1036B000039069464846FEF72BFEA802CDE90004B8
:1036C000694648460294FEF723FE00220221172095
:1036D000FEF784FF1720FEF773FF05B0BDE8F08307
:1036E0000010024000080140000C014000002110C1
:1036F00010B586B0002418480094019402940394F5
:1037000004941449059401604FF4FA51C0E901147E
:1037100040F2E731C0E9031444618461FFF7C2FA63
:1037200008B172B6FEE74FF48050009069460A482F
:10373000FFF742FB08B172B6FEE7049404A90648FD
:103740000594FFF77BFA002801D072B6FEE706B0B9
:1037500010BD0000002C01402C01002010B586B0E7
:1037600000241748009401940294039404944FF0A9
:103770008041059401604FF4FA51C0E9011442F20E
:103780001071C0E903148461FFF78CFA08B172B6B6
:10379000FEE74FF48050009069460948FFF70CFBA4
:1037A00008B172B6FEE7049404A905480594FFF732
:1037B00045FA002801D072B6FEE706B010BD000041
:1037C00074010020FEE7FEE7704700007CB5144856
:1037D000FEF786FA1248A0F11C0401686161406896
:1037E000A061FEF78FFE4FF49665E060FEF78AFE5B
:1037F000E168401AA842F9D3A06900F041FB0546F0
:103800000E46606900F03CFBCDE900560B460246CF
:1038100004A02169FCF7F0FCFEF774FEE0607CBDBB
:103820001C00002054656D703A2025302E32662031
:103830002D2048756D693A2025302E32660D0A001C
:1038400070471FB5002200910192029203926946CF
:10385000FEF75EFD1FBD1FB5002200910121CDE9DD
:103860000112022103916946FEF752FD1FBDFEF7CA
:103870004FBE30B593B028216846FCF7A1FD142156
:103880000AA8FCF79DFD002401200F940225049056
:10389000009510200590109411941294CDE90754CE
:1038A00068460994FFF724F808B172B6FEE70F20C6
:1038B000CDE90A054FF48060CDE90C4000210AA84B
:1038C0000E94FEF733FF08B172B6FEE74FF40040E6
:1038D00011900F950FA8FEF7B3FE002801D072B625
:1038E000FEE713B030BD70470148FFF7D4BA0000BF
:1038F0002C0100200148FFF7CEBA0000740100201F
:10390000F0B50268164B174C174D4FF080479842A0
:1039100005D0B84203D0A04201D0A84203D122F082
:1039200070064A683243984205D0B84203D0A0429C
:1039300001D0A84203D122F44074CA6822434C69E2
:1039400022F08002224302608A68C2620A688262B0
:10395000984201D10969016301214161F0BD000074
:10396000002C0140000400400008004010B58468AD
:1039700042EA032224F47F440A432243826010BDBA
:10398000826822F070020A4342F0070181607047AA
:1039900010B5036A046A24F001040462846924F007
:1039A000F00444EA021423F00A020A43846102622A
:1039B00010BD10B5036A046A24F01004046284691F
:1039C00023F0A00324F4704444EA023243EA0111D4
:1039D0008261016210BD10B5406A0021C185C184B9
:1039E000FFF711FB10BD01680C3151E8002F22F4E4
:1039F000907241E80023002BF5D10168143151E8A1
:103A0000002F22F0010241E80023002BF5D1016BC9
:103A1000012909D101680C3151E8002F22F0100270
:103A200041E80023002BF5D1202180F8421000212D
:103A30000163704708B590F84210222901D0022096
:103A400008BD82684FF480539A4201D1016921B1C7
:103A5000816A9A421BD04AB10AE00268816A5268C0
:103A6000C2F308020A80816A891C08E0026972B107
:103A70000268526802F07F020A70816A491C816202
:103A8000C18D491E0904090CC18503D01BE00268E1
:103A90005268F1E70168CA6822F02002CA60016832
:103AA000CA6822F48072CA6001684A6922F0010281
:103AB0004A61202180F8421000214163026B012AF3
:103AC00003D0FFF757FC002008BD016301680C31EB
:103AD00051E8002F22F0100241E80023002BF5D11D
:103AE00001680A68D20602D50A6849680091818D8A
:103AF000FFF788FAE7E7000070B50446006801693F
:103B0000E26821F44051114301612169A068084332
:103B1000616908432168CA6841F20C639A43024311
:103B2000CA6020684169A26921F440711143416172
:103B30001E492068884202D1FEF7A4FE01E0FEF78C
:103B400091FE00EBC00101EB00126068642180006F
:103B5000B2FBF0F3B3FBF1F36FF018067343B2FB63
:103B6000F0F5B2FBF0F605EB8305322303EB051508
:103B7000B5FBF1F5B6FBF1F605F0F00505EB061522
:103B8000B2FBF0F6B2FBF0F0B0FBF1F06FF0180210
:103B9000504306EB800003EB0010B0FBF1F021680E
:103BA00000F00F002844886070BD0000003801401C
:103BB00081628285C28500214164222180F8421001
:103BC000016921B10168CA6842F48072CA60016863
:103BD0004A6942F001024A610068C16841F020016F
:103BE000C160002070472DE9F041984617460E4607
:103BF0000446069D27E0681C25D02DB1FEF782FC07
:103C0000A0EB0800A8421ED920680C3050E8001F25
:103C100021F4D07140E80012002AF5D12068143058
:103C200050E8001F21F0010140E80012002AF5D100
:103C3000202084F8410084F84200002084F84000ED
:103C40000320BDE8F0812068006836EA000004D057
:103C50000020B842CFD00020F3E70120F9E70000B0
:103C60000148FFF7D1B90000BC010020FEE7490080
:103C700050EAC12018BF04204A0D18BF40F00100CF
:103C800040F2FF72B2EB515F08BF40F00200012822
:103C900008BF052070470907090E002804DB00F162
:103CA000E02080F80014704700F00F0000F1E020E1
:103CB00080F8141D704730380A2801D2012070475F
:103CC0000020704731B5084D6C68FEF7C5FD074907
:103CD000B0FBF1F000994843009068680099001B20
:103CE0008842FAD338BD0000001000E040420F00C7
:103CF00013B54FF6FF73012269460248FFF7E2FB56
:103D000000981CBDBC010020FEF70AFCFFF7B1FDC6
:103D1000FFF774FCFFF726FCFFF7EAFCFFF71EFD38
:103D20003C483B490C2201604FF4E13141600021E5
:103D30008160C160C0E904128161C161FFF79AFA34
:103D400008B172B6FEE7FFF733FC32489038FFF750
:103D500007F8324C30480122217801442D48FFF702
:103D6000FBFA2F4D012210212846FEF7C6FB2D4EEF
:103D7000012220213046FEF7C0FB01221103284614
:103D8000FEF7BBFB0122D1022846FEF7B6FB01225B
:103D900011023046FEF7B1FB40F2DC551E4864309C
:103DA000FEF796F92846FEF77DFA1B486430FEF7C9
:103DB000B9F842F210714843000B60601648643055
:103DC000FEF7E6F914489430FEF782F92846FEF72C
:103DD00069FA11489430FEF7A5F864214843000BB6
:103DE000A0600D489430FEF7D3F90C490A231F2236
:103DF00024310848FFF766FB0BA06168FCF7FCF96B
:103E00000DA0A168FCF7F8F9FFF7E0FCC6E7000099
:103E100000440040BC010020680000200000002099
:103E200000080140000C014052657369746F7220F4
:103E30003A202564200A00004E6869657420646F8A
:103E4000203A202564200A0010B500290AD00878FD
:103E5000002807D005487844FCF7DAFA002801D09A
:103E6000002010BD0248784410BD0000360200005A
:103E70002E0200000808A0F500114FEA310170473A
:103E800043004FEAD30C4FEA3C0C43401FBF4007AE
:103E90000CF1605113F0FE4F70471CF0006F03D11E
:103EA00000200CF0004170470CF0004343EA5070D2
:103EB00010B540EACC0000F022F800BF00000092EC
:103EC0004FEA0001FFF7D6BF4FF000414FF000006E
:103ED000A1F5002170470000B0FA80F310FA03F258
:103EE000C3F19D030AD0D90501EB1220530638BF58
:103EF000704700F1010008BF20F0010070470EF18B
:103F0000020E2EF0030E5EF8044B244204D44FEA56
:103F10004102B2F17F4F11D84FEA4003B3F17F4F16
:103F20000CD80ED14FEAD07CB2F17F4F0CEB4C0C89
:103F30000CF1020C08BF4CEBD17C04E04FF0080CF4
:103F400001E04FEAD17C0CEB4C0324FA03F404F0BB
:103F50000704B4F1040C06D20EEB840CBDE810404B
:103F60004CF0010C6047DFE80CF0070802024FF04C
:103F70000040A0F5800010BD0846420018BFD2F1F5
:103F8000807288BF00F0004010BDFCF7B6BB010294
:103F900002030405060708090A0B0C0D0E0F10108A
:103FA00000000000000000000102030406070809E9
:103FB00000000000010203040400000800000000EB
:103FC000000000020001000010000000024000009C
:103FD000000000A00000000005400000000000C834
:103FE000000000000C4000000000409C00000000A9
:103FF000194000000020BCBE00000000344000005A
:10400000BFC91B8E00000004B5400000504BCFD04C
:104010006607E2CF010000006C4100003E8251AA19
:10402000DFEEA73401000000D9420000DCB5A0E2B9
:104030003A301F97FFFFFFFFB4450000FD25A0C8E1
:10404000E9A3C14FFFFFFFFFFF3F0000000000801A
:1040500000000000FF3F00000000008000000000A2
:104060003A7474003A7474003A747400A8400008FA
:10407000000000206800000028010008104100082E
:1040800068000020F8080000440100081C0000003F
:1040900043000000F8FFFFFF0C0000000E000000CE
:1040A0000F0000002E0000000000000000000000D3
:1040B0000000000000000000000000000000000000
:1040C00000000000000000000000000048656C6C6B
:1040D0006F2066726F6D2043686572727920456C3F
:1040E000656374726F6E6963730A000001000000FB
:1040F00010000000000000000024F4000000000098
:1041000000000000000000000000000000000000AF
:04000005080000ED02
:00000001FF
